S00F0000447269766572732E7372656336
S11300000C942A000C9482030C94A9030C94D0033E
S11300100C9447000C9447000C9447000C94470040
S11300200C9447000C9447000C941E040C94F703A2
S11300300C9447000C9447000C9447000C94470020
S11300400C9447000C9447000C9447000C94470010
S11300500C94470011241FBECFE5D8E0DEBFCDBF0E
S113006010E0A0E6B0E0E4E8F9E002C005900D92EB
S1130070A836B107D9F720E0A8E6B0E001C01D9288
S1130080A837B207E1F70E9449000C94C0040C940D
S1130090000040E060E080E00E94A8020E94680244
S11300A00E94470180E895E20E94450460E080E0F8
S11300B00E94330280E690E00E94260260916B0069
S11300C070916C0080E00E949302E0916B00F091CB
S11300D06C0020813181A8E8B3E10E947104DC0145
S11300E0CB01072E7AE0B695A795979587957A95D3
S11300F0D1F7702D90936A00809369009C01A4E667
S1130100B0E00E947104DC01CB01072E7AE0B695C1
S1130110A795979587957A95D1F7702D8093680068
S11301208DE690E00E946104809168000E946A0458
S113013065E080E00E94330280916D0090E00E94AF
S11301404A02BCCFCF93C82F40E063E080E00E9416
S113015015038FE99FE00197F1F700C0000041E02B
S113016062E080E00E9415038FE99FE00197F1F7B8
S113017000C000004C2F407150E0559547955595AF
S11301804795559547955595479560E081E00E94C0
S113019015034C2F407250E055954795559547955A
S11301A055954795559547955595479561E081E057
S11301B00E9415034C2F407450E0042E452F000C70
S11301C0441F550B000C441F551F62E081E00E9440
S11301D015034C2F441F4427441F64E081E00E9410
S11301E015038FE99FE00197F1F700C0000040E09C
S11301F062E080E00E9415038FE99FE00197F1F728
S113020000C0000041E062E080E00E9415038FE935
S11302109FE00197F1F700C000004C2F417060E0AF
S113022081E00E9415034C2F427050E0559547958C
S113023061E081E00E9415034C2F447050E0559515
S113024047955595479562E081E00E941503C87073
S11302504C2F50E05595479555954795559547959D
S113026064E081E00E9415038FE99FE00197F1F7B4
S113027000C0000040E062E080E00E9415038FE9C6
S11302809FE00197F1F700C00000CF91089541E08D
S113029063E080E00E94A80241E062E080E00E9406
S11302A0A8022FEF89EF90E0215080409040E1F7C1
S11302B000C0000041E060E081E00E94A80241E04B
S11302C061E081E00E94A80241E062E081E00E94D6
S11302D0A80241E064E081E00E94A80283E30E9456
S11302E0A20082E30E94A20088E20E94A20086E0AB
S11302F00E94A2008CE00E94A20081E00E94A20061
S11303000895CF93C82F41E063E080E00E94150375
S11303108FE99FE00197F1F700C0000041E062E03F
S113032080E00E9415038FE99FE00197F1F700C078
S113033000004C2F407150E05595479555954795D1
S1130340559547955595479560E081E00E941503C2
S11303504C2F407250E055954795559547955595C6
S11303604795559547955595479561E081E00E94DD
S113037015034C2F407450E0042E452F000C441FED
S1130380550B000C441F551F62E081E00E941503C9
S11303904C2F441F4427441F64E081E00E9415034E
S11303A08FE99FE00197F1F700C0000040E062E0B0
S11303B080E00E9415038FE99FE00197F1F700C0E8
S11303C0000041E062E080E00E9415038FE99FE0B5
S11303D00197F1F700C000004C2F417060E081E00C
S11303E00E9415034C2F427050E05595479561E0EB
S11303F081E00E9415034C2F447050E055954795B9
S11304005595479562E081E00E941503C8704C2F12
S113041050E055954795559547955595479564E012
S113042081E00E9415038FE99FE00197F1F700C076
S1130430000040E062E080E00E9415038FE99FE045
S11304400197F1F700C00000CF910895CF93DF9397
S1130450EC0103C00E948101219688818111FACFA9
S1130460DF91CF910895813031F070F0823031F016
S1130470833039F00AC090E4960F07C090E1960FDC
S113048004C090E5960F01C0962F892F80680E94C2
S1130490A2000895CF93DF93CDB7DEB760970FB670
S11304A0F894DEBF0FBECDBF4AE050E0BE016F5FDF
S11304B07F4F0E948004CE0101960E94260260961E
S11304C00FB6F894DEBF0FBECDBFDF91CF91089574
S11304D086B18F7786B987B1806487B987B18F7702
S11304E087B987B18F7787B986B1816086B986B1BC
S11304F0826086B986B1846086B986B1877F86B901
S113050086B18F7D86B980B78F7D80BF80B78F7BA2
S113051080BF80B78F7780BF86B1806186B986B18E
S1130520806886B9089527B197B1207E8770822BA1
S1130530982B97B986B1806486B9349BFECF86B177
S1130540806186B984B195B1FB019183808308955C
S1130550813001F130F08230B1F1833009F44CC0C4
S11305600895413059F42AB381E090E002C0880F25
S1130570991F6A95E2F7822B8ABB08952AB381E01A
S113058090E002C0880F991F6A95E2F78095822354
S11305908ABB0895413059F427B381E090E002C04A
S11305A0880F991F6A95E2F7822B87BB089527B3BA
S11305B081E090E002C0880F991F6A95E2F7809568
S11305C0822387BB0895413059F424B381E090E03D
S11305D002C0880F991F6A95E2F7822B84BB0895A5
S11305E024B381E090E002C0880F991F6A95E2F776
S11305F08095822384BB0895413059F421B381E06E
S113060090E002C0880F991F6A95E2F7822B81BBA4
S1130610089521B381E090E002C0880F991F6A9584
S1130620E2F78095822381BB0895813001F130F097
S11306308230B1F1833009F44CC00895413059F44B
S11306402BB381E090E002C0880F991F6A95E2F70E
S1130650822B8BBB08952BB381E090E002C0880FFE
S1130660991F6A95E2F7809582238BBB08954130E8
S113067059F428B381E090E002C0880F991F6A956D
S1130680E2F7822B88BB089528B381E090E002C092
S1130690880F991F6A95E2F78095822388BB089595
S11306A0413059F425B381E090E002C0880F991FCE
S11306B06A95E2F7822B85BB089525B381E090E02B
S11306C002C0880F991F6A95E2F78095822385BB43
S11306D00895413059F422B381E090E002C0880FBC
S11306E0991F6A95E2F7822B82BB089522B381E0B9
S11306F090E002C0880F991F6A95E2F780958223E3
S113070082BB08951F920F920FB60F9211242F935C
S11307103F934F935F936F937F938F939F93AF9385
S1130720BF93EF93FF93E0917200F09173000995EA
S1130730FF91EF91BF91AF919F918F917F916F91B5
S11307405F914F913F912F910F900FBE0F901F908B
S113075018951F920F920FB60F9211242F933F9367
S11307604F935F936F937F938F939F93AF93BF93B5
S1130770EF93FF93E0917000F09171000995FF9160
S1130780EF91BF91AF919F918F917F916F915F9105
S11307904F913F912F910F900FBE0F901F9018957E
S11307A01F920F920FB60F9211242F933F934F93E2
S11307B05F936F937F938F939F93AF93BF93EF93C5
S11307C0FF93E0916E00F0916F000995FF91EF9116
S11307D0BF91AF919F918F917F916F915F914F9155
S11307E03F912F910F900FBE0F901F9018951F925D
S11307F00F920FB60F9211242F933F934F935F9351
S11308006F937F938F939F93AF93BF93EF93FF93D4
S1130810E0917400F09175000995FF91EF91BF91FB
S1130820AF919F918F917F916F915F914F913F9184
S11308302F910F900FBE0F901F9018951F920F923B
S11308400FB60F9211242F933F934F935F936F939F
S11308507F938F939F93AF93BF93EF93FF93E09115
S11308607600F09177000995FF91EF91BF91AF91D8
S11308709F918F917F916F915F914F913F912F91B4
S11308800F900FBE0F901F90189587E689B941E02D
S113089061E083E00E94A80240E060E083E00E94FF
S11308A0A8028BB18D7F8BB98AB180618AB98AB174
S11308B088608AB98AB18B7F8AB986E880BD1BB803
S11308C008955F9BFECF2CB1FC0120838BB180681F
S11308D08BB908955D9BFECF8CB98BB180628BB9C7
S11308E00895A29FB001B39FC001A39F700D811D05
S11308F01124911DB29F700D811D1124911D089525
S11309004532510520F4423010F00C948B04FB0165
S11309101082CB010895BB274A3031F4992322F485
S1130920BDE2909581959F4F0C949704BB27FB01E2
S11309305527AA27880F991FAA1FA41710F0A41BD4
S113094083955051B9F7A05DAA3308F0A95DA1932E
S1130950009779F7B111B1931192CB010C94B004C3
S1130960DC01FC01672F71917723E1F7329704C012
S11309707C916D9370836291AE17BF07C8F308959D
S1070980F894FFCF15
S10B098454656D703A20000077
S9030000FC
