S00F0000447269766572732E7372656336
S11300000C942A000C947A030C94A1030C94C80356
S11300100C9447000C9447000C9447000C94470040
S11300200C9447000C9447000C943F040C9418045F
S11300300C9447000C9447000C9447000C94470020
S11300400C9447000C9447000C9447000C94470010
S11300500C94470011241FBECFE5D8E0DEBFCDBF0E
S113006010E0A0E6B0E0E0E5F9E002C005900D92F2
S1130070AA36B107D9F720E0AAE6B0E001C01D9284
S1130080A937B207E1F70E947D000C94A6040C94F2
S1130090000080916A0090916B00019690936B0030
S11300A080936A00883E934039F580916E008F5F9B
S11300B080936E008C3339F410926E0080916D0041
S11300C08F5F80936D0080916D008C3339F41092B2
S11300D06D0080916C008F5F80936C0080916C0048
S11300E0883131F410926E0010926D0010926C0001
S11300F010926B0010926A00089567E081E00E94FC
S11301009C0269E470E082E00E9409040E94F30307
S11301100E94EF030E947B0180E690E00E945A0255
S113012080916E008A3050F467E080E00E9467029C
S113013080916E0090E00E947E0209C066E080E03B
S11301400E94670280916E0090E00E947E0280917E
S11301506D008A3050F464E080E00E946702809170
S11301606D0090E00E947E0209C063E080E00E947E
S1130170670280916D0090E00E947E0280916C0085
S11301808A3050F461E080E00E94670280916C0044
S113019090E00E947E02C4CF60E080E00E9467028B
S11301A080916C0090E00E947E02BACFCF93C82F5A
S11301B040E063E080E00E940D038FE99FE0019737
S11301C0F1F700C0000041E062E080E00E940D030E
S11301D08FE99FE00197F1F700C000004C2F4071B8
S11301E050E055954795559547955595479555959F
S11301F0479560E081E00E940D034C2F407250E06F
S113020055954795559547955595479555954795D2
S11302105595479561E081E00E940D034C2F407491
S113022050E0042E452F000C441F550B000C441FB6
S1130230551F62E081E00E940D034C2F441F4427A8
S1130240441F64E081E00E940D038FE99FE0019761
S1130250F1F700C0000040E062E080E00E940D037E
S11302608FE99FE00197F1F700C0000041E062E0F0
S113027080E00E940D038FE99FE00197F1F700C031
S113028000004C2F417060E081E00E940D034C2F70
S1130290427050E05595479561E081E00E940D035E
S11302A04C2F447050E0559547955595479562E01D
S11302B081E00E940D03C8704C2F50E0559547957E
S11302C0559547955595479564E081E00E940D0347
S11302D08FE99FE00197F1F700C0000040E062E081
S11302E080E00E940D038FE99FE00197F1F700C0C1
S11302F00000CF91089541E063E080E00E94A002F5
S113030041E062E080E00E94A0022FEF89EF90E0DC
S1130310215080409040E1F700C0000041E060E0DF
S113032081E00E94A00241E061E081E00E94A0021D
S113033041E062E081E00E94A00241E064E081E0EB
S11303400E94A00283E30E94D60082E30E94D600AA
S113035088E20E94D60086E00E94D6008CE00E94CB
S1130360D60081E00E94D6000895CF93C82F41E0C3
S113037063E080E00E940D038FE99FE00197F1F7AD
S113038000C0000041E062E080E00E940D038FE9BC
S11303909FE00197F1F700C000004C2F407150E03E
S11303A05595479555954795559547955595479531
S11303B060E081E00E940D034C2F407250E055959F
S11303C04795559547955595479555954795559511
S11303D0479561E081E00E940D034C2F407450E08A
S11303E0042E452F000C441F550B000C441F551FB1
S11303F062E081E00E940D034C2F441F4427441FF8
S113040064E081E00E940D038FE99FE00197F1F71A
S113041000C0000040E062E080E00E940D038FE92C
S11304209FE00197F1F700C0000041E062E080E046
S11304300E940D038FE99FE00197F1F700C00000CF
S11304404C2F417060E081E00E940D034C2F4270FC
S113045050E05595479561E081E00E940D034C2FD3
S1130460447050E0559547955595479562E081E075
S11304700E940D03C8704C2F50E055954795559533
S113048047955595479564E081E00E940D038FE9F7
S11304909FE00197F1F700C0000040E062E080E0D7
S11304A00E940D038FE99FE00197F1F700C000005F
S11304B0CF910895CF93DF93EC0103C00E94B5015F
S11304C0219688818111FACFDF91CF9108958130EF
S11304D031F070F0823031F0833039F00AC090E4AA
S11304E0960F07C090E1960F04C090E5960F01C0E7
S11304F0962F892F80680E94D6000895CF93DF93AA
S1130500CDB7DEB760970FB6F894DEBF0FBECDBF90
S11305104AE050E0BE016F5F7F4F0E946604CE0147
S113052001960E945A0260960FB6F894DEBF0FBE81
S1130530CDBFDF91CF91089541E00E94A0020895BC
S1130540813001F130F08230B1F1833009F44CC0D4
S11305500895413059F42AB381E090E002C0880F35
S1130560991F6A95E2F7822B8ABB08952AB381E02A
S113057090E002C0880F991F6A95E2F78095822364
S11305808ABB0895413059F427B381E090E002C05A
S1130590880F991F6A95E2F7822B87BB089527B3CA
S11305A081E090E002C0880F991F6A95E2F7809578
S11305B0822387BB0895413059F424B381E090E04D
S11305C002C0880F991F6A95E2F7822B84BB0895B5
S11305D024B381E090E002C0880F991F6A95E2F786
S11305E08095822384BB0895413059F421B381E07E
S11305F090E002C0880F991F6A95E2F7822B81BBB5
S1130600089521B381E090E002C0880F991F6A9594
S1130610E2F78095822381BB0895813001F130F0A7
S11306208230B1F1833009F44CC00895413059F45B
S11306302BB381E090E002C0880F991F6A95E2F71E
S1130640822B8BBB08952BB381E090E002C0880F0E
S1130650991F6A95E2F7809582238BBB08954130F8
S113066059F428B381E090E002C0880F991F6A957D
S1130670E2F7822B88BB089528B381E090E002C0A2
S1130680880F991F6A95E2F78095822388BB0895A5
S1130690413059F425B381E090E002C0880F991FDE
S11306A06A95E2F7822B85BB089525B381E090E03B
S11306B002C0880F991F6A95E2F78095822385BB53
S11306C00895413059F422B381E090E002C0880FCC
S11306D0991F6A95E2F7822B82BB089522B381E0C9
S11306E090E002C0880F991F6A95E2F780958223F3
S11306F082BB08951F920F920FB60F9211242F936D
S11307003F934F935F936F937F938F939F93AF9395
S1130710BF93EF93FF93E0917300F09174000995F8
S1130720FF91EF91BF91AF919F918F917F916F91C5
S11307305F914F913F912F910F900FBE0F901F909B
S113074018951F920F920FB60F9211242F933F9377
S11307504F935F936F937F938F939F93AF93BF93C5
S1130760EF93FF93E0917100F09172000995FF916E
S1130770EF91BF91AF919F918F917F916F915F9115
S11307804F913F912F910F900FBE0F901F9018958E
S11307901F920F920FB60F9211242F933F934F93F2
S11307A05F936F937F938F939F93AF93BF93EF93D5
S11307B0FF93E0916F00F09170000995FF91EF9124
S11307C0BF91AF919F918F917F916F915F914F9165
S11307D03F912F910F900FBE0F901F9018958FB7D8
S11307E080688FBF089583B78F7B83BF83B788608A
S11307F083BF8AEF8CBF89B7826089BF83B781606A
S113080083BF83B7826083BF83B78B7F83BF12BEEE
S11308100895882319F0823031F00895709376009A
S1130820609375000895709378006093770008953D
S11308301F920F920FB60F9211242F933F934F9351
S11308405F936F937F938F939F93AF93BF93EF9334
S1130850FF93E0917500F09176000995FF91EF9177
S1130860BF91AF919F918F917F916F915F914F91C4
S11308703F912F910F900FBE0F901F9018951F92CC
S11308800F920FB60F9211242F933F934F935F93C0
S11308906F937F938F939F93AF93BF93EF93FF9344
S11308A0E0917700F09178000995FF91EF91BF9165
S11308B0AF919F918F917F916F915F914F913F91F4
S11308C02F910F900FBE0F901F9018954532510530
S11308D020F4423010F00C947104FB011082CB011F
S11308E00895BB274A3031F4992322F4BDE2909550
S11308F081959F4F0C947D04BB27FB015527AA27A4
S1130900880F991FAA1FA41710F0A41B8395505198
S1130910B9F7A05DAA3308F0A95DA193009779F710
S1130920B111B1931192CB010C949604DC01FC013A
S1130930672F71917723E1F7329704C07C916D930F
S113094070836291AE17BF07C8F30895F894FFCF80
S10D095030303A30303A3030000005
S9030000FC
