:100000000C942A000C9478040C949F040C94C6045D
:100010000C9447000C9447000C9447000C94470044
:100020000C9447000C9447000C9447000C94470034
:100030000C9447000C9447000C9447000C94470024
:100040000C9447000C9447000C9447000C94470014
:100050000C94470011241FBECFE5D8E0DEBFCDBF12
:1000600010E0A0E6B0E0E8ECFAE002C005900D92E6
:10007000AC36B107D9F720E0ACE6B0E001C01D9284
:10008000AA37B207E1F70E9467000C9462050C944E
:1000900000000E94D202609170007091710081E0B6
:1000A0000E940003E0917000F09171002081318185
:1000B000A8E8B3E10E94130520E038E240E050E0F8
:1000C0000E94F10430936D0020936C00089540E08D
:1000D00060E080E00E94120340E061E080E00E9466
:1000E000120340E065E083E00E9412030E94710168
:1000F00080E690E00E94500262E080E00E94EC0303
:1001000069E470E081E00E94630462E081E00E94A3
:10011000EC030E9492020E94ED040E949202609100
:1001200072007091730080E00E94BD02E091720045
:10013000F091730020813181A8E8B3E10E9413059A
:10014000DC01CB01072E7AE0B695A79597958795A8
:100150007A95D1F7702D90936F0080936E0065E0D3
:1001600080E00E945D0280916E0090916F000E947D
:10017000740260E081E00E945D0285E690E00E94EA
:10018000500266E081E00E945D0280916C009091D7
:100190006D000E947402C1CFCF93C82F40E063E08E
:1001A00080E00E947F038FE99FE00197F1F700C094
:1001B000000041E062E080E00E947F038FE99FE061
:1001C0000197F1F700C000004C2F407150E05595A9
:1001D000479555954795559547955595479560E0B1
:1001E00081E00E947F034C2F407250E05595479567
:1001F00055954795559547955595479555954795E7
:1002000061E081E00E947F034C2F407450E0042E97
:10021000452F000C441F550B000C441F551F62E076
:1002200081E00E947F034C2F441F4427441F64E059
:1002300081E00E947F038FE99FE00197F1F700C002
:10024000000040E062E080E00E947F038FE99FE0D1
:100250000197F1F700C0000041E062E080E00E94F9
:100260007F038FE99FE00197F1F700C000004C2F5A
:10027000417060E081E00E947F034C2F427050E0AB
:100280005595479561E081E00E947F034C2F4470B3
:1002900050E0559547955595479562E081E00E945D
:1002A0007F03C8704C2F50E055954795559547955D
:1002B0005595479564E081E00E947F038FE99FE0B8
:1002C0000197F1F700C0000040E062E080E00E948A
:1002D0007F038FE99FE00197F1F700C00000CF9105
:1002E000089541E063E080E00E94120341E062E093
:1002F00080E00E9412032FEF89EF90E021508040B0
:100300009040E1F700C0000041E060E081E00E9421
:10031000120341E061E081E00E94120341E062E0EB
:1003200081E00E94120341E064E081E00E94120338
:1003300083E30E94CC0082E30E94CC0088E20E940A
:10034000CC0086E00E94CC008CE00E94CC0081E0D2
:100350000E94CC000895CF93C82F41E063E080E075
:100360000E947F038FE99FE00197F1F700C0000032
:1003700041E062E080E00E947F038FE99FE0019707
:10038000F1F700C000004C2F407150E055954795A3
:1003900055954795559547955595479560E081E06A
:1003A0000E947F034C2F407250E05595479555951C
:1003B000479555954795559547955595479561E0CE
:1003C00081E00E947F034C2F407450E0042E452FA3
:1003D000000C441F550B000C441F551F62E081E0C8
:1003E0000E947F034C2F441F4427441F64E081E098
:1003F0000E947F038FE99FE00197F1F700C00000A2
:1004000040E062E080E00E947F038FE99FE0019777
:10041000F1F700C0000041E062E080E00E947F034D
:100420008FE99FE00197F1F700C000004C2F417069
:1004300060E081E00E947F034C2F427050E05595B0
:10044000479561E081E00E947F034C2F447050E0AB
:10045000559547955595479562E081E00E947F0349
:10046000C8704C2F50E05595479555954795559533
:10047000479564E081E00E947F038FE99FE0019748
:10048000F1F700C0000040E062E080E00E947F03DE
:100490008FE99FE00197F1F700C00000CF91089528
:1004A000CF93DF93EC0103C00E94AB0121968881BA
:1004B0008111FACFDF91CF910895813031F070F042
:1004C000823031F0833039F00AC090E4960F07C0D3
:1004D00090E1960F04C090E5960F01C0962F892FEA
:1004E00080680E94CC000895CF93DF93CDB7DEB72C
:1004F00060970FB6F894DEBF0FBECDBF4AE050E064
:10050000BE016F5F7F4F0E942205CE0101960E94BF
:10051000500260960FB6F894DEBF0FBECDBFDF91DC
:10052000CF91089586B18F7786B987B1806487B9F6
:1005300087B18F7787B987B18F7787B986B18160A7
:1005400086B986B1826086B986B1846086B986B183
:10055000877F86B986B18F7D86B980B78F7D80BF52
:1005600080B78F7B80BF80B78F7780BF86B1806177
:1005700086B986B1806886B9089527B197B1207E83
:100580008770822B982B97B986B1806486B9349B8B
:10059000FECF86B1806186B984B195B1FB019183AC
:1005A0008083089586B18F7786B987B1806487B9D3
:1005B00087B18F7787B987B18F7787B986B1816027
:1005C00086B986B1826086B986B1846086B986B103
:1005D000877F86B986B1806286B980B78F7D80BFFC
:1005E00080B7806480BF80B78F7780BF86B18F7BF4
:1005F00086B986B1806186B986B1806886B908956A
:1006000027B197B1207E8770822B982B97B9349BA6
:10061000FECF86B1806186B984B195B1FB0191832B
:1006200080830895813001F130F08230B1F1833060
:1006300009F44CC00895413059F42AB381E090E0A8
:1006400002C0880F991F6A95E2F7822B8ABB089532
:100650002AB381E090E002C0880F991F6A95E2F703
:10066000809582238ABB0895413059F427B381E0F5
:1006700090E002C0880F991F6A95E2F7822B87BB32
:10068000089527B381E090E002C0880F991F6A9512
:10069000E2F78095822387BB0895413059F424B353
:1006A00081E090E002C0880F991F6A95E2F7822BE3
:1006B00084BB089524B381E090E002C0880F991FA5
:1006C0006A95E2F78095822384BB0895413059F4FE
:1006D00021B381E090E002C0880F991F6A95E2F78C
:1006E000822B81BB089521B381E090E002C0880F86
:1006F000991F6A95E2F78095822381BB0895813026
:1007000001F130F08230B1F1833009F44CC008952A
:10071000413059F42BB381E090E002C0880F991F5B
:100720006A95E2F7822B8BBB08952BB381E090E0B2
:1007300002C0880F991F6A95E2F7809582238BBBD0
:100740000895413059F428B381E090E002C0880F49
:10075000991F6A95E2F7822B88BB089528B381E040
:1007600090E002C0880F991F6A95E2F78095822376
:1007700088BB0895413059F425B381E090E002C070
:10078000880F991F6A95E2F7822B85BB089525B3E0
:1007900081E090E002C0880F991F6A95E2F780958A
:1007A000822385BB0895413059F422B381E090E063
:1007B00002C0880F991F6A95E2F7822B82BB0895C9
:1007C00022B381E090E002C0880F991F6A95E2F79A
:1007D0008095822382BB0895CF93C62F813089F103
:1007E00020F0823009F459C06CC040E062E083E040
:1007F0000E9412038BB780648BBFC13069F028F070
:10080000C23089F0C330B1F05CC085B78E7F85BF40
:1008100085B78D7F85BF55C085B7816085BF85B79A
:100820008D7F85BF4EC085B78E7F85BF85B78260BF
:1008300085BF47C085B7816085BF85B7826085BFAA
:1008400040C040E063E083E00E9412038BB7806801
:100850008BBFC13069F028F0C23089F0C330B1F0ED
:1008600030C085B78B7F85BF85B7877F85BF29C09F
:1008700085B7846085BF85B7877F85BF22C085B770
:100880008B7F85BF85B7886085BF1BC085B78460B7
:1008900085BF85B7886085BF14C040E062E081E015
:1008A0000E9412038BB780628BBFC23019F0C33035
:1008B00029F007C084B78F7B84BF03C084B78064EE
:1008C00084BFCF910895813049F018F0823059F0FB
:1008D000089570937900609378000895709377007D
:1008E0006093760008957093750060937400089586
:1008F0001F920F920FB60F9211242F933F934F9395
:100900005F936F937F938F939F93AF93BF93EF9377
:10091000FF93E0917800F09179000995FF91EF91B4
:10092000BF91AF919F918F917F916F915F914F9107
:100930003F912F910F900FBE0F901F9018951F920F
:100940000F920FB60F9211242F933F934F935F9303
:100950006F937F938F939F93AF93BF93EF93FF9387
:10096000E0917600F09177000995FF91EF91BF91AA
:10097000AF919F918F917F916F915F914F913F9137
:100980002F910F900FBE0F901F9018951F920F92EE
:100990000FB60F9211242F933F934F935F936F9352
:1009A0007F938F939F93AF93BF93EF93FF93E091C8
:1009B0007400F09175000995FF91EF91BF91AF918F
:1009C0009F918F917F916F915F914F913F912F9167
:1009D0000F900FBE0F901F9018958FB780688FBF34
:1009E0000895A1E21A2EAA1BBB1BFD010DC0AA1F70
:1009F000BB1FEE1FFF1FA217B307E407F50720F088
:100A0000A21BB30BE40BF50B661F771F881F991F02
:100A10001A9469F760957095809590959B01AC014B
:100A2000BD01CF010895A29FB001B39FC001A39F54
:100A3000700D811D1124911DB29F700D811D112417
:100A4000911D08954532510520F4423010F00C9468
:100A50002D05FB011082CB010895BB274A3031F4EC
:100A6000992322F4BDE2909581959F4F0C9439050E
:100A7000BB27FB015527AA27880F991FAA1FA41778
:100A800010F0A41B83955051B9F7A05DAA3308F06C
:100A9000A95DA193009779F7B111B1931192CB01A0
:100AA0000C945205DC01FC01672F71917723E1F76B
:100AB000329704C07C916D9370836291AE17BF072B
:080AC000C8F30895F894FFCF7C
:0C0AC8004C4452200054656D702000006A
:00000001FF
